:0600000000F055EF00F0D6
:08000800FFFF5982C2EF05F071
:10001800FFFF5980D8CF0FF0E8CF10F0E0CF11F0F4
:10002800FACF12F0FBCF13F0E9CF14F0EACF15F0B6
:10003800E1CF16F0E2CF17F0D9CF18F0DACF19F0E8
:10004800F3CF1AF0F4CF1BF0F6CF1CF0F7CF1DF06A
:10005800F8CF1EF0F5CF1FF01FC0F5FF1EC0F8FF48
:100068001DC0F7FF1CC0F6FF1BC0F4FF1AC0F3FF4A
:1000780019C0DAFF18C0D9FF17C0E2FF16C0E1FFA8
:1000880015C0EAFF14C0E9FF13C0FBFF12C0FAFF56
:1000980011C0E0FF10C0E8FF0FC0D8FF5990100052
:0600A800FFFFF8EF06F077
:10060000006269656E76656E69646F206120706F47
:10061000736963696F6E616D69656E746F2064657F
:100620002063616D617261004D4F56455258000064
:10063000FFFF58EC07F01BEC07F0010E206E060ED2
:10064000216ED0EC06F0FFFF45044610D8A406D07A
:10065000000E216E0A0E206EA8EC06F0FFFF470484
:100660004810D8A447D0090E49184A10D8A442D03F
:10067000000E2E6E000E2D6EFFFF2EBE06D02E50E9
:1006800016E1060E2D5CD8B012D0FFFF800E2D248F
:10069000D96E000E2E20DA6E990E2D24E16E000E1A
:1006A0002E20E26EDFCFE7FF2D4A2E2AE5D7FFFF8F
:1006B000990E206E000E216E280E226E060E236EFD
:1006C0007EEC06F020C02BF021C02CF086C04CF050
:1006D00087C04DF088C04EF04C0E266E000E276E7F
:1006E00030EC06F026C035F027C036F0000E486E1C
:1006F000000E476EFFFF2B502C10D8A4A4D736BE97
:1007000020D1365004E13504D8B00FD11AD10DD123
:10071000FFFF50BEE8D0505004E1080E4F5CD8A057
:10072000E2D0000E506E000E4F6EDDD0FFFF010EC6
:10073000896E000E0001AE6F000EAD6F04D0FFFF9A
:100740000001AD4BAE2BFFFF0001AD51535C545087
:10075000800A296E0001AE51800A2958D8A0BDD068
:10076000EED7FFFF030E896E000E0001B06F000E82
:10077000AF6F04D0FFFF0001AF4BB02BFFFF0001B4
:10078000AF51535C5450800A296E0001B051800A69
:100790002958D8A0A2D0EED7FFFF020E896E000E16
:1007A0000001B26F000EB16F04D0FFFF0001B14B2A
:1007B000B22BFFFF0001B151535C5450800A296EE7
:1007C0000001B251800A2958D8A087D0EED7FFFF88
:1007D000060E896E000E0001B46F000EB36F04D0D8
:1007E000FFFF0001B34BB42BFFFF0001B351535C7B
:1007F0005450800A296E0001B451800A2958D8A0AB
:100800006CD0EED7FFFF040E896E000E0001B66FAC
:10081000000EB56F04D0FFFF0001B54BB62BFFFFF4
:100820000001B551535C5450800A296E0001B65145
:10083000800A2958D8A051D0EED7FFFF0C0E896E40
:10084000000E0001B86F000EB76F04D0FFFF00016B
:10085000B74BB82BFFFF0001B751535C5450800ACF
:10086000296E0001B851800A2958D8A036D0EED799
:10087000FFFF080E896E000E0001BA6F000EB96FFF
:1008800004D0FFFF0001B94BBA2BFFFF0001B951A3
:10089000535C5450800A296E0001BA51800A2958CD
:1008A000D8A01BD0EED7FFFF090E896E000E000105
:1008B000BC6F000EBB6F04D0FFFF0001BB4BBC2B15
:1008C000FFFF0001BB51535C5450800A296E0001A8
:1008D000BC51800A2958D8B0EFD7FFFF574A582A91
:1008E0004F4A502A22D0FFFF4FC029F050C02AF0B3
:1008F0002A50000AD8A419D02950000AD8B416D713
:10090000010AD8B42ED7030AD8B446D7010AD8B4FE
:100910005ED7070AD8B476D7010AD8B48ED7030AAF
:10092000D8B4A6D7010AD8B4BED7FFFF5750355C5C
:100930003650800A296E5850800A2958D8A01CD1F8
:10094000E7D6FFFF36BE0DD17ED6FFFF50AEE7D013
:10095000000E506E070E4F6EE2D0FFFF090E896E3B
:10096000000E0001BE6F000EBD6F04D0FFFF00013E
:10097000BD4BBE2BFFFF0001BD51535C5450800A9C
:10098000296E0001BE51800A2958D8A0C0D0EED7E8
:10099000FFFF080E896E000E0001C06F000EBF6FD2
:1009A00004D0FFFF0001BF4BC02BFFFF0001BF5170
:1009B000535C5450800A296E0001C051800A2958A6
:1009C000D8A0A5D0EED7FFFF0C0E896E000E000157
:1009D000C26F000EC16F04D0FFFF0001C14BC22BDC
:1009E000FFFF0001C151535C5450800A296E000181
:1009F000C251800A2958D8A08AD0EED7FFFF040E32
:100A0000896E000E0001C46F000EC36F04D0FFFF9B
:100A10000001C34BC42BFFFF0001C351535C545072
:100A2000800A296E0001C451800A2958D8A06FD0CD
:100A3000EED7FFFF060E896E000E0001C66F000E96
:100A4000C56F04D0FFFF0001C54BC62BFFFF00019F
:100A5000C551535C5450800A296E0001C651800A6A
:100A60002958D8A054D0EED7FFFF020E896E000E91
:100A70000001C86F000EC76F04D0FFFF0001C74B15
:100A8000C82BFFFF0001C751535C5450800A296EE8
:100A90000001C851800A2958D8B0EFD75706D8A00E
:100AA00058065FD0FFFF030E896E000E0001CA6F6B
:100AB000000EC96F04D0FFFF0001C94BCA2BFFFF16
:100AC0000001C951535C5450800A296E0001CA517B
:100AD000800A2958D8A01BD0EED7FFFF010E896EDF
:100AE000000E0001CC6F000ECB6F04D0FFFF0001A1
:100AF000CB4BCC2BFFFF0001CB51535C5450800AF1
:100B0000296E0001CC51800A2958D8B0EFD7FFFFD9
:100B10005706D8A058064F06D8A0500622D0FFFF8F
:100B20004FC029F050C02AF02A50000AD8A419D08A
:100B30002950000AD8B411D7010AD8B429D7030A1A
:100B4000D8B441D7010AD8B459D7070AD8B471D755
:100B5000010AD8B489D7030AD8B4A4D7010AD8B4F3
:100B6000BCD7FFFF3550575C5850800A296E36506D
:100B7000800A2958D8B0E9D6FFFF000E586E000E43
:100B8000576E61D5FFFFFACF01F0FBCF02F0E9CF3E
:100B900003F0EACF04F0E1CF05F0E2CF06F0D9CFC1
:100BA00007F0DACF08F0F3CF09F0F4CF0AF0F6CF70
:100BB0000BF0F7CF0CF0F8CF0DF0F5CF0EF09EAAAA
:100BC00022D0AECF4BF00D0E4B18D8B40DD0800E06
:100BD0004324D96E000E4420DA6E4BC0DFFF434A37
:100BE000442A494A4A2A0DD0FFFF0D0E4B18D8A4BB
:100BF00008D0000E446E000E436E000E486E010ECB
:100C0000476EFFFF9E9AFFFF9EA00AD09E9000F0C5
:100C1000000E466E010E456E0B0ECF6EDC0ECE6ED4
:100C2000FFFF0EC0F5FF0DC0F8FF0CC0F7FF0BC0B3
:100C3000F6FF0AC0F4FF09C0F3FF08C0DAFF07C0DF
:100C4000D9FF06C0E2FF05C0E1FF04C0EAFF03C010
:100C5000E9FF02C0FBFF01C0FAFF59921100FFFF3C
:100C6000FFFF000E446E000E436E000E346E010E48
:100C7000336E000E326E020E316E37D0FFFF3150F0
:100C80002624D96E32502720DA6EDF50286ED00E1F
:100C900028242F6E306AFF0E30222FC020F030C083
:100CA00021F033C022F034C023F03EEC07F020C026
:100CB0002FF021C030F02F504324436E3050442099
:100CC000446EFF0E3124316EFF0E3220326E33C07F
:100CD00020F034C021F0000E236E0A0E226E3EEC8E
:100CE00007F020C033F021C034F0FFFF32AEC6D78A
:100CF00043C026F044C027F01200FFFFFFFF05D0DD
:100D0000FFFF204A212A224A232AFFFF20C0D9FFC1
:100D100021C0DAFFDF50246E22C0F6FF23C0F7FFA8
:100D20000800FFFFF55000082424256E2550D8A4A4
:100D300007D020C0D9FF21C0DAFFDF50D8A4E0D708
:100D4000FFFF2550206E216A20BE21061200FFFF02
:100D5000FFFF394A3A2A2050395C3A50800A226E05
:100D60002150800A2258D8A014D081AE02D0010EA2
:100D700002D0FFFF000EFFFFFF0A226E2232223256
:100D80008A5022187F0B22188A6E000E3A6E000ECF
:100D9000396EFFFF000E466E000E456E1200FFFF1B
:100DA000FFFF0ED0FFFF20C0F6FF21C0F7FF0800B5
:100DB000FFFFF5CFADFFFFFFACA2FDD7204A212AF0
:100DC000FFFF20C0F6FF21C0F7FF0800FFFFF5502E
:100DD0000009D8A4E7D70A0EAD6EFFFFACA2FDD77D
:100DE0000D0EAD6EFFFFACB21200FFFFFBD7FFFF91
:100DF000A60EF66E0E0EF76E000EF86E00EE4FF0B9
:100E000010EE0AF00900F5CFEEFFE550E150FAE1EF
:100E100000EE80F02D0EEE6AE806FDE100EE2BF00C
:100E2000240EEE6AE806FDE159905992000EF86E24
:100E3000000118EF03F0FFFF000E806E000E816EC0
:100E4000000E826E000E926E939ECD8E300ECD12ED
:100E5000CD92CD84CD809D809F800B0ECF6EDC0E19
:100E6000CE6E948E949C0A0EAF6EAB8EAC98AC8412
:100E7000AC8AAB889D8A9F8A1200FFFFFFFF20503B
:100E80002202F3CF24F0F4CF25F020502302F350B8
:100E9000252621502202F350252624C020F025C00B
:100EA00021F01200FFFF010008009600EC0F010086
:080EB000FFFF1200FFFFFFFF2E
:020000040020DA
:08000000FFFFFFFFFFFFFFFF00
:020000040030CA
:0E000000FF270F0FFF0185FF0FC00FE00F401D
:00000001FF
