:0600000000F055EF00F0D6
:08000800FFFF5F8276EF0AF0B2
:10001800FFFF5F80D8CF43F0E8CF44F0E0CF45F052
:10002800FACF46F0FBCF47F0E9CF48F0EACF49F0E6
:10003800E1CF4AF0E2CF4BF0D9CF4CF0DACF4DF018
:10004800F3CF4EF0F4CF4FF0F6CF50F0F7CF51F09A
:10005800F8CF52F0F5CF53F053C0F5FF52C0F8FF78
:1000680051C0F7FF50C0F6FF4FC0F4FF4EC0F3FF7A
:100078004DC0DAFF4CC0D9FF4BC0E2FF4AC0E1FFD8
:1000880049C0EAFF48C0E9FF47C0FBFF46C0FAFF86
:1000980045C0E0FF44C0E8FF43C0D8FF5F901000B0
:0600A800FFFF9DEF0CF0CC
:100600000001000A006400E8031027436F6D616E6B
:10061000646F206E6F205265636F6E6F6369646FE5
:10062000006269656E76656E69646F004D4F564570
:100630005259004D4F564552580073746570636FA0
:0B064000756E74203A20256420000035
:10064C00FFFFEEEC0CF074EC0CF0210E0001E26FED
:10065C00060E0001E36FA8EC0BF0FFFF2B042C102F
:10066C00D8A40CD029502A10D8A408D000F0000E21
:10067C000001E36F060EE26F4AEC0CF0FFFF2D0455
:10068C002E10D8A41FD100F0000E0C6E000E0B6EB5
:10069C00FFFF0CBE06D00C5016E1060E0B5CD8B05A
:1006AC0012D0FFFFB50E0B24D96E000E0C20DA6EA3
:1006BC00CE0E0B24E16E000E0C20E26EDFCFE7FFB6
:1006CC000B4A0C2AE5D7FFFFCE0E0001E26F000E9D
:1006DC000001E36F330E0001E46F060E0001E56FBD
:1006EC001AEC0CF0E2C057F0E3C058F0CE0E00014B
:1006FC00E26F000E0001E36F2C0E0001E46F060E9A
:10070C000001E56F1AEC0CF0E2C055F0E3C056F0B6
:10071C00B50E0001E26F000E0001E36FA8EC0BF0C8
:10072C00BB0E016E000E026E01C0D9FF02C0DAFFD3
:10073C002D0EDE18D8A456D0BC0E016E000E026E23
:10074C0011D0FFFF01C0D9FF02C0DAFF830E0324D2
:10075C00E16E000E0420E26EDFCFE7FF014A022AB1
:10076C00034A042AFFFF01C0D9FF02C0DAFFDF50A1
:10077C00D8A4E7D7000E046E000E036EF90E2F24DA
:10078C00096EFF0E30200A6E830E0001E86F000E1A
:10079C000001E96F09C0EAF00AC0EBF010EC0BF0B5
:1007AC00E8C032F0E9C033F0326C331ED8B0332AD3
:1007BC00000E2E6E000E2D6E000E306E000E2F6E83
:1007CC003CD0FFFF01C0D9FF02C0DAFF830E032427
:1007DC00E16E000E0420E26EDFCFE7FF014A022A31
:1007EC00034A042AFFFF01C0D9FF02C0DAFFDF5021
:1007FC00D8A4E7D7000E046E000E036EFA0E2F2459
:10080C00076EFF0E3020086E830E0001E86F000E9D
:10081C000001E96F07C0EAF008C0EBF010EC0BF038
:10082C00E8C032F0E9C033F0000E2E6E000E2D6ED3
:10083C00000E306E000E2F6E00F0FFFF000E066EE5
:10084C00000E056EFFFF06BE06D0065010E1190E15
:10085C00055CD8B00CD0FFFFB50E0524D96E000E88
:10086C000620DA6E000EDF6E054A062AEBD7FFFF74
:10087C00000E066E000E056EFFFF06BE06D006507B
:10088C0010E1190E055CD8B00CD0FFFF830E0524C7
:10089C00D96E000E0620DA6E000EDF6E054A062AAF
:1008AC00EBD7FFFF57505810D8B40CD055505610FA
:1008BC00D8B408D00B0E0001E26F060E0001E36FF6
:1008CC00A8EC0BF0FFFF57505810D8A42DD033BE16
:1008DC0015D0335003E13204D8A010D000F032C050
:1008EC00FBF033C0FCF005EC06F0E9EC0CF011D099
:1008FC00FFFF000E336E000E326E11D0FFFF33AED1
:10090C0013D032C0FBF033C0FCF070EC08F0E9EC13
:10091C000CF0FFFF000E186E000E176EE9D7FFFFEC
:10092C00000E2A6E000E296EFFFF55505610D8A4EB
:10093C0094D633BE15D0335003E13204D8A010D076
:10094C0000F032C0FBF033C0FCF0CDEC04F0DDEC79
:10095C000CF011D0FFFF000E336E000E326E11D072
:10096C00FFFF33AE7AD632C0FBF033C0FCF03DEC67
:10097C0007F0DDEC0CF0FFFF000E186E000E176E8A
:10098C00E9D7FFFF000E2A6E000E296E66D6FFFF18
:10099C0024D1FFFF000E2A6E010E296E16BE0AD05E
:1009AC00165004E1080E155CD8A004D0000E166E8B
:1009BC00000E156EFFFF9C0E0001ED6F000E000186
:1009CC00EE6F3A0E0001EF6F060E0001F06F17C0CC
:1009DC00F1F018C0F2F0A3EC09F09C0E0001E26FEC
:1009EC00000E0001E36FA8EC0BF0D3D0FFFF010E5B
:1009FC008A6E000E066E000E056E03D0FFFF054AD0
:100A0C00062AFFFF05505B5C5C50800A0001FD6FFD
:100A1C000650800A0001FD59D8B0F0D700F0174AF3
:100A2C00182A00F019D0FFFF030E8A6E000E066E16
:100A3C00000E056E03D0FFFF054A062AFFFF055086
:100A4C005B5C5C50800A0001FD6F0650800A00015F
:100A5C00FD59D8A09AD0EFD7FFFF154A162ABDD062
:100A6C00FFFF020E8A6E000E066E000E056E03D09E
:100A7C00FFFF054A062AFFFF05505B5C5C50800AAD
:100A8C000001FD6F0650800A0001FD59D8A07DD0F1
:100A9C00EFD7FFFF060E8A6E000E066E000E056E77
:100AAC0003D0FFFF054A062AFFFF05505B5C5C5034
:100ABC00800A0001FD6F0650800A0001FD59D8A084
:100ACC0064D0EFD7FFFF040E8A6E000E066E000E88
:100ADC00056E03D0FFFF054A062AFFFF05505B5C3D
:100AEC005C50800A0001FD6F0650800A0001FD5920
:100AFC00D8A04BD0EFD7FFFF0C0E8A6E000E066EFF
:100B0C00000E056E03D0FFFF054A062AFFFF0550B5
:100B1C005B5C5C50800A0001FD6F0650800A00018E
:100B2C00FD59D8A032D0EFD7FFFF080E8A6E000E09
:100B3C00066E000E056E03D0FFFF054A062AFFFF66
:100B4C0005505B5C5C50800A0001FD6F0650800A0A
:100B5C000001FD59D8A019D0EFD7FFFF090E8A6EFE
:100B6C00000E066E000E056E03D0FFFF054A062A26
:100B7C00FFFF05505B5C5C50800A0001FD6F065066
:100B8C00800A0001FD59D8B0F0D7FFFF174A182A88
:100B9C0063D7FFFF15C0FDF016C0FEF00001FE513B
:100BAC00000AD8A41AD00001FD51000AD8B41ED7EF
:100BBC00010AD8B438D7030AD8B452D7010AD8B42A
:100BCC0068D7070AD8B47ED7010AD8B494D7030AD9
:100BDC00D8B4AAD7010AD8B4C0D7FFFF1750000168
:100BEC00FB5D0001FC51800A0001FD6F1850800A6A
:100BFC000001FD59D8A01200FFFFCBD6FFFFFFFF6D
:100C0C0024D1FFFF000E2A6E010E296E16BE0AD0EB
:100C1C00165004E1080E155CD8A004D0000E166E18
:100C2C00000E156EFFFF9C0E0001ED6F000E000113
:100C3C00EE6F3A0E0001EF6F060E0001F06F17C059
:100C4C00F1F018C0F2F0A3EC09F09C0E0001E26F79
:100C5C00000E0001E36FA8EC0BF0D3D0FFFF010EE8
:100C6C00896E000E066E000E056E03D0FFFF054A5E
:100C7C00062AFFFF05505B5C5C50800A0001FD6F8B
:100C8C000650800A0001FD59D8B0F0D700F0174A81
:100C9C00182A00F019D0FFFF030E896E000E066EA5
:100CAC00000E056E03D0FFFF054A062AFFFF055014
:100CBC005B5C5C50800A0001FD6F0650800A0001ED
:100CCC00FD59D8A09AD0EFD7FFFF154A162ABDD0F0
:100CDC00FFFF020E896E000E066E000E056E03D02D
:100CEC00FFFF054A062AFFFF05505B5C5C50800A3B
:100CFC000001FD6F0650800A0001FD59D8A07DD07F
:100D0C00EFD7FFFF060E896E000E066E000E056E05
:100D1C0003D0FFFF054A062AFFFF05505B5C5C50C1
:100D2C00800A0001FD6F0650800A0001FD59D8A011
:100D3C0064D0EFD7FFFF040E896E000E066E000E16
:100D4C00056E03D0FFFF054A062AFFFF05505B5CCA
:100D5C005C50800A0001FD6F0650800A0001FD59AD
:100D6C00D8A04BD0EFD7FFFF0C0E896E000E066E8D
:100D7C00000E056E03D0FFFF054A062AFFFF055043
:100D8C005B5C5C50800A0001FD6F0650800A00011C
:100D9C00FD59D8A032D0EFD7FFFF080E896E000E98
:100DAC00066E000E056E03D0FFFF054A062AFFFFF4
:100DBC0005505B5C5C50800A0001FD6F0650800A98
:100DCC000001FD59D8A019D0EFD7FFFF090E896E8D
:100DDC00000E066E000E056E03D0FFFF054A062AB4
:100DEC00FFFF05505B5C5C50800A0001FD6F0650F4
:100DFC00800A0001FD59D8B0F0D7FFFF174A182A16
:100E0C0063D7FFFF15C0FDF016C0FEF00001FE51C8
:100E1C00000AD8A41AD00001FD51000AD8B41ED77C
:100E2C00010AD8B438D7030AD8B452D7010AD8B4B7
:100E3C0068D7070AD8B47ED7010AD8B494D7030A66
:100E4C00D8B4AAD7010AD8B4C0D7FFFF17500001F5
:100E5C00FB5D0001FC51800A0001FD6F1850800AF7
:100E6C000001FD59D8A01200FFFFCBD6FFFFFFFFFA
:100E7C001FD1FFFF000E2A6E010E296E16BE0AD07E
:100E8C00165004E1080E155CD8A004D0000E166EA6
:100E9C00000E156EFFFF9C0E0001ED6F000E0001A1
:100EAC00EE6F3A0E0001EF6F060E0001F06F17C0E7
:100EBC00F1F018C0F2F0A3EC09F09C0E0001E26F07
:100ECC00000E0001E36FA8EC0BF0CED0FFFF090E73
:100EDC008A6E000E066E000E056E03D0FFFF054AEB
:100EEC00062AFFFF05505B5C5C50800A0001FD6F19
:100EFC000650800A0001FD59D8A0AFD0EFD7FFFFF4
:100F0C00080E8A6E000E066E000E056E03D0FFFFF3
:100F1C00054A062AFFFF05505B5C5C50800A000105
:100F2C00FD6F0650800A0001FD59D8A096D0EFD76E
:100F3C00FFFF0C0E8A6E000E066E000E056E03D0BF
:100F4C00FFFF054A062AFFFF05505B5C5C50800AD8
:100F5C000001FD6F0650800A0001FD59D8A07DD01C
:100F6C00EFD7FFFF040E8A6E000E066E000E056EA4
:100F7C0003D0FFFF054A062AFFFF05505B5C5C505F
:100F8C00800A0001FD6F0650800A0001FD59D8A0AF
:100F9C0064D0EFD7FFFF060E8A6E000E066E000EB1
:100FAC00056E03D0FFFF054A062AFFFF05505B5C68
:100FBC005C50800A0001FD6F0650800A0001FD594B
:100FCC00D8A04BD0EFD7FFFF020E8A6E000E066E34
:100FDC00000E056E03D0FFFF054A062AFFFF0550E1
:100FEC005B5C5C50800A0001FD6F0650800A0001BA
:100FFC00FD59D8A032D0EFD7FFFF030E8A6E000E3A
:10100C00066E000E056E03D0FFFF054A062AFFFF91
:10101C0005505B5C5C50800A0001FD6F0650800A35
:10102C000001FD59D8A019D0EFD7FFFF010E8A6E31
:10103C00000E066E000E056E03D0FFFF054A062A51
:10104C00FFFF05505B5C5C50800A0001FD6F065091
:10105C00800A0001FD59D8B0F0D7FFFF1706D8A0C1
:10106C001806154A162A24D0FFFF15C0FDF016C02D
:10107C00FEF00001FE51000AD8A41AD00001FD5167
:10108C00000AD8B423D7010AD8B439D7030AD8B484
:10109C004FD7010AD8B465D7070AD8B47BD7010A51
:1010AC00D8B491D7030AD8B4A7D7010AD8B4BDD7FE
:1010BC00FFFF0001FB51175C1850800A0001FD6F07
:1010CC000001FC51800A0001FD59D8A01200FFFF5D
:1010DC00D0D6FFFFFFFF1FD1FFFF000E2A6E010EBF
:1010EC00296E16BE0AD0165004E1080E155CD8A065
:1010FC0004D0000E166E000E156EFFFF9C0E000144
:10110C00ED6F000E0001EE6F3A0E0001EF6F060E50
:10111C000001F06F17C0F1F018C0F2F0A3EC09F069
:10112C009C0E0001E26F000E0001E36FA8EC0BF0C7
:10113C00CED0FFFF090E896E000E066E000E056EF6
:10114C0003D0FFFF054A062AFFFF05505B5C5C508D
:10115C00800A0001FD6F0650800A0001FD59D8A0DD
:10116C00AFD0EFD7FFFF080E896E000E066E000E93
:10117C00056E03D0FFFF054A062AFFFF05505B5C96
:10118C005C50800A0001FD6F0650800A0001FD5979
:10119C00D8A096D0EFD7FFFF0C0E896E000E066E0E
:1011AC00000E056E03D0FFFF054A062AFFFF05500F
:1011BC005B5C5C50800A0001FD6F0650800A0001E8
:1011CC00FD59D8A07DD0EFD7FFFF040E896E000E1D
:1011DC00066E000E056E03D0FFFF054A062AFFFFC0
:1011EC0005505B5C5C50800A0001FD6F0650800A64
:1011FC000001FD59D8A064D0EFD7FFFF060E896E11
:10120C00000E066E000E056E03D0FFFF054A062A7F
:10121C00FFFF05505B5C5C50800A0001FD6F0650BF
:10122C00800A0001FD59D8A04BD0EFD7FFFF020E6A
:10123C00896E000E066E000E056E03D0FFFF054A88
:10124C00062AFFFF05505B5C5C50800A0001FD6FB5
:10125C000650800A0001FD59D8A032D0EFD7FFFF0D
:10126C00030E896E000E066E000E056E03D0FFFF96
:10127C00054A062AFFFF05505B5C5C50800A0001A2
:10128C00FD6F0650800A0001FD59D8A019D0EFD788
:10129C00FFFF010E896E000E066E000E056E03D068
:1012AC00FFFF054A062AFFFF05505B5C5C50800A75
:1012BC000001FD6F0650800A0001FD59D8B0F0D72F
:1012CC00FFFF1706D8A01806154A162A24D0FFFFD0
:1012DC0015C0FDF016C0FEF00001FE51000AD8A4A6
:1012EC001AD00001FD51000AD8B423D7010AD8B492
:1012FC0039D7030AD8B44FD7010AD8B465D7070A2F
:10130C00D8B47BD7010AD8B491D7030AD8B4A7D7DD
:10131C00010AD8B4BDD7FFFF0001FB51175C185070
:10132C00800A0001FD6F0001FC51800A0001FD598B
:10133C00D8A01200FFFFD0D6FFFFFFFFF10E000177
:10134C00F46F000E0001F56FB2D0FFFF250E000107
:10135C00FA19D8B40AD0EDC0D9FFEEC0DAFFFAC042
:10136C00DFFF0001ED4BEE2BA2D0FFFF000E0001C2
:10137C00F66FEFC0F6FFF0C0F7FF0001EF4BF02B5C
:10138C000800FFFFF5CFFAF00001FA51000AD8B4BB
:10139C009ED0640AD8B403D00D0AD8A488D0FFFF1D
:1013AC00F4C0D9FFF5C0DAFFDECFF8F0DDCFF9F0ED
:1013BC00020E0001F427000EF5230001F9AF08D04E
:1013CC00030E0001F6130001F86DF91FD8B0F92BCC
:1013DC00FFFF010E0001FA6FFFFF050E0001FA1965
:1013EC00D8B418D00001FA51020D010EF324F66E98
:1013FC00060EF420F76E0900FFFFF5500001F85DB2
:10140C000900FFFFF5500001F959D8A003D00001E5
:10141C00FA2BE2D7FFFFF6C0F3F0030E0001F3172F
:10142C00D8B409D0EDC0D9FFEEC0DAFF2D0EDF6EB7
:10143C000001ED4BEE2BFFFFFAC0F7F031D0FFFFB0
:10144C000001F751020D010EF324F66E060EF42086
:10145C00F76E0900FFFFF5CFE4F00A00FFFFF5CFB0
:10146C00E5F0F8C0E2F0F9C0E3F065EC0BF0E2C097
:10147C00E9F0E3C0EAF0000E0001EC6F0A0EEB6F2E
:10148C00E5EC0BF00001E951300F0001FA6FEDC0F3
:10149C00D9FFEEC0DAFFFAC0DFFF0001ED4BEE2BF7
:1014AC00FFFF0001F7070001F729D8A4C8D7FFFFF9
:1014BC00EFC0F6FFF0C0F7FF0001EF4BF02B080078
:1014CC00FFFFF5CFFAF00001FA51D8A43ED7FFFF89
:1014DC00EDC0D9FFEEC0DAFF000EDF6E1200FFFF89
:1014EC00FFFFFACF35F0FBCF36F0E9CF37F0EACF7C
:1014FC0038F0E1CF39F0E2CF3AF0D9CF3BF0DACF88
:10150C003CF0F3CF3DF0F4CF3EF0F6CF3FF0F7CF09
:10151C0040F0F8CF41F0F5CF42F09EAA22D0AECFEA
:10152C0031F00D0E3118D8B40DD0B50E2724D96E6C
:10153C00000E2820DA6E31C0DFFF274A282A2F4AF6
:10154C00302A0DD0FFFF0D0E3118D8A408D0000E94
:10155C00286E000E276E000E2E6E010E2D6EFFFFF4
:10156C009E9AFFFF9EA036D09E9000F0000E2C6E2F
:10157C00010E2B6E0B0ECF6EDC0ECE6E2B042C10D0
:10158C00D8A428D029042A10D8A424D000F01D4AAD
:10159C001E2A1EBE1AD01E5004E1020E1D5CD8A0DD
:1015AC0014D081AE02D0010E02D0FFFF000EFFFF5F
:1015BC00FF0A346E343234328A5034187F0B3418AC
:1015CC008A6E000E1E6E000E1D6EFFFF000E2C6E3E
:1015DC00000E2B6EFFFF42C0F5FF41C0F8FF40C06C
:1015EC00F7FF3FC0F6FF3EC0F4FF3DC0F3FF3CC029
:1015FC00DAFF3BC0D9FF3AC0E2FF39C0E1FF38C087
:10160C00EAFF37C0E9FF36C0FBFF35C0FAFF5F9237
:10161C001100FFFFFFFF000E146E000E136E000E84
:10162C00126E010E116EFF0E0001EA250F6EFF0EF9
:10163C000001EB21106E3AD0FFFF0F500001E8259E
:10164C00D96E10500001E921DA6EDF50546ED00EC5
:10165C0054240D6E0E6AFF0E0E220DC0E2F00EC069
:10166C00E3F011C0E4F012C0E5F0C0EC0CF0E2C005
:10167C000DF0E3C00EF00D501324136E0E50142019
:10168C00146EFF0E0F240F6EFF0E1020106E11C083
:10169C00E2F012C0E3F0000E0001E56F0A0EE46FF9
:1016AC00C0EC0CF0E2C011F0E3C012F0FFFF10AE82
:1016BC00C3D713C0E8F014C0E9F01200FFFFFFFF1E
:1016CC00000E0001E86F000EE76F0001E45100010D
:1016DC00E511D8B430D0010E0001E66F07D0FFFF42
:1016EC000001D890E437E5370001E62BFFFF00013D
:1016FC00E5AFF5D7FFFF0001D890E737E8370001D9
:10170C00E4510001E25D0001E5510001E359D8A06C
:10171C000AD00001E4510001E25F0001E551000133
:10172C00E35B0001E781FFFF0001D890E533E43370
:10173C000001E62FDFD7FFFFE7C0E2F0E8C0E3F0DF
:10174C001200FFFFFFFF19D0FFFFE2C0F6FFE3C05E
:10175C00F7FFF86A050EF76404D00800FFFFF55098
:10176C0005D0F6CFE9FFF7CFEAFFEF50AD6EFFFFE4
:10177C00ACA2FDD70001E24BE32BFFFFE2C0F6FF6A
:10178C00E3C0F7FFF86A050EF76404D00800FFFF0A
:10179C00F55005D0F6CFE9FFF7CFEAFFEF5000097F
:1017AC00D8A4D2D70A0EAD6EFFFFACA2FDD70D0E9A
:1017BC00AD6EFFFFACB21200FFFFFBD7FFFFFFFFC8
:1017CC000001EB510001EC11D8B427D0010E546E7E
:1017DC0006D0FFFF0001D890EB37EC37542AFFFFFF
:1017EC000001ECAFF6D7FFFF0001EB510001E95D02
:1017FC000001EC510001EA59D8A008D00001EB51CE
:10180C000001E95F0001EC510001EA5BFFFF000100
:10181C00D890EC33EB33542EE6D7FFFFE9C0E9F058
:10182C00EAC0EAF01200FFFFFFFF07D0FFFF000144
:10183C00E24BE32B0001E44BE52BFFFFE2C0D9FFA9
:10184C00E3C0DAFFDF50546EE4C0F6FFE5C0F7FFEB
:10185C000800FFFFF550000854240001E66F00015A
:10186C00E651D8A407D0E2C0D9FFE3C0DAFFDF50BD
:10187C00D8A4DCD7FFFF0001E6510001E26FE36B57
:10188C00E2BFE3071200FFFFFFFF1B4A1C2A000107
:10189C00E2511B5C1C50800A546E0001E351800A1B
:1018AC005458D8A014D081AE02D0010E02D0FFFF44
:1018BC00000EFFFFFF0A546E543254328A505418F3
:1018CC007F0B54188A6E000E1C6E000E1B6EFFFFF1
:1018DC00000E2C6E000E2B6E1200FFFFFFFF000E91
:1018EC00806E000E816E000E826E93909392939494
:1018FC009396000E926E939ECD8E300ECD12CD929D
:10190C00CD84CD809D809F800B0ECF6EDC0ECE6E75
:10191C00F28EF28C948E949C0A0EAF6EAB8EAC98B9
:10192C00AC84AC8AAB889D8A9F8A1200FFFFC80EDC
:10193C00F66E190EF76E000EF86E00EE55F010EE06
:10194C000AF00900F5CFEEFFE550E150FAE100EEA8
:10195C0080F0620EEE6AE806FDE100EE01F0330E57
:10196C00EE6AE806FDE15F905F92000EF86E0001F2
:10197C0026EF03F0FFFF0001E2510001E403F3CF77
:10198C00E6F0F4CFE7F00001E2510001E503F3507B
:10199C000001E7270001E3510001E403F3500001CB
:1019AC00E727E6C0E2F0E7C0E3F01200FFFFFFFF1D
:1019BC008A908A928A948A961200FFFF0100010095
:1019CC0008003200EC0FFFFF000E896E1200FFFFC3
:0819DC00FFFF1200FFFFFFFFF7
:020000040020DA
:08000000FFFFFFFFFFFFFFFF00
:020000040030CA
:0E000000FF220D0EFF0080FF0FC00FE00F402B
:00000001FF
