:0600000000F055EF00F0D6
:08000800FFFF5F8295EF0CF091
:10001800FFFF5F80D8CF10F0E8CF11F0E0CF12F0EB
:10002800FACF13F0FBCF14F0E9CF15F0EACF16F0B2
:10003800E1CF17F0E2CF18F0D9CF19F0DACF1AF0E4
:10004800F3CF1BF0F4CF1CF0F6CF1DF0F7CF1EF066
:10005800F8CF1FF0F5CF20F020C0F5FF1FC0F8FF44
:100068001EC0F7FF1DC0F6FF1CC0F4FF1BC0F3FF46
:100078001AC0DAFF19C0D9FF18C0E2FF17C0E1FFA4
:1000880016C0EAFF15C0E9FF14C0FBFF13C0FAFF52
:1000980012C0E0FF11C0E8FF10C0D8FF5F90100049
:1000A800FFFF77EF0EF0FFFFE9EC0FF066EC0FF0C3
:1000B800A20E216E7F0E226E3BEC0EF0600E216EBA
:1000C8007F0E226E3BEC0EF0340E216E7F0E226EF8
:1000D8003BEC0EF0FFFF0001AB050001AC11D8A40A
:1000E8000DD00001A9510001AA11D8A407D000F031
:1000F800000E226E060E216E0FEC0FF0FFFF0001BE
:10010800AD050001AE11D8A49FD300F0000E3D6EDE
:10011800000E3C6EFFFF3DBE06D03D5016E1060EB8
:100128003C5CD8B012D0FFFFC80E3C24D96E000E3C
:100138003D20DA6EE10E3C24E16E000E3D20E26EB9
:10014800DFCFE7FF3C4A3D2AE5D7FFFFE10E216EEE
:10015800000E226EC70E236E7F0E246E3CEC0FF04D
:1001680021C05BF022C05CF0E10E216E000E226E11
:10017800C00E236E7F0E246E3CEC0FF021C059F0A8
:1001880022C05AF0C80E216E000E226EB70E236EE2
:100198007F0E246E3CEC0FF021C0F9F022C0FAF07B
:1001A800C80E216E000E226EAE0E236E7F0E246ED8
:1001B8003CEC0FF021C097F022C098F0C80E216ED9
:1001C800000E226E3BEC0EF05B505C10D8B41BD0D6
:1001D80059505A10D8B417D00001F9510001FA113A
:1001E800D8B411D00001975100019811D8B40BD0A0
:1001F8008C0E216E7F0E226E3BEC0EF0000E00017D
:10020800AE6F000EAD6FFFFF5B505C10D8A4E3D05B
:10021800CE0E366E000E376E36C0D9FF37C0DAFF05
:100228002D0EDE18D8A488D0CF0E366E000E376E8D
:1002380011D0FFFF36C0D9FF37C0DAFF1D0E3824B2
:10024800E16E010E3920E26EDFCFE7FF364A372A2A
:10025800384A392AFFFF36C0D9FF37C0DAFFDF50E6
:10026800D8A4E7D7000E396E000E386EF90E402478
:100278000001956FFF0E41200001966F1D0E0101D0
:10028800006F010E0101016F95C002F196C003F1E4
:1002980025EC0BF000C14FF001C150F056C003F13E
:1002A80057C004F158C005F14FC029F050C02AF0DA
:1002B800B8EC0FF029C000F12AC001F12BC002F1FF
:1002C800E7EC0BF000C10CF101C10DF102C10EF118
:1002D8003FEC0DF00CC14BF00DC14CF00EC14DF0D0
:1002E8000FC14EF04F6C501ED8B0502A32504F24D8
:1002F800326E33505020336E4E1E4D1E4C1E4B6CCA
:10030800000E4C224D224E22E7D0FFFF000E416E18
:10031800000E406E65D2FFFF36C0D9FF37C0DAFF46
:100328001D0E3824E16E010E3920E26EDFCFE7FFA3
:10033800364A372A384A392AFFFF36C0D9FF37C02C
:10034800DAFFDF50D8A4E7D7000E396E000E386EFA
:10035800FA0E40240001936FFF0E41200001946FB4
:100368001D0E0101006F010E0101016F93C002F122
:1003780094C003F125EC0BF000C14FF001C150F01F
:1003880032504F24326E33505020336E56C003F132
:1003980057C004F158C005F14FC029F050C02AF0E9
:1003A800B8EC0FF029C000F12AC001F12BC002F10E
:1003B800E7EC0BF000C10CF101C10DF102C10EF127
:1003C8003FEC0DF00CC14BF00DC14CF00EC14DF0DF
:1003D8000FC14EF081D0FFFF59505A10D8A4EDD06C
:1003E800CE0E366E000E376E36C0D9FF37C0DAFF34
:1003F8002D0EDE18D8A488D0CF0E366E000E376EBC
:1004080011D0FFFF36C0D9FF37C0DAFF1D0E3824E0
:10041800E16E010E3920E26EDFCFE7FF364A372A58
:10042800384A392AFFFF36C0D9FF37C0DAFFDF5014
:10043800D8A4E7D7000E396E000E386EF90E4024A6
:100448000001956FFF0E41200001966F1D0E0101FE
:10045800006F010E0101016F95C002F196C003F112
:1004680025EC0BF000C151F001C152F053C003F16B
:1004780054C004F155C005F151C029F052C02AF00A
:10048800B8EC0FF029C000F12AC001F12BC002F12D
:10049800E7EC0BF000C10CF101C10DF102C10EF146
:1004A8003FEC0DF00CC147F00DC148F00EC149F00A
:1004B8000FC14AF0516C521ED8B0522A5150342400
:1004C800346E52503520356E4A1E491E481E476C00
:1004D800000E482249224A22FFFF000E0001AE6F9B
:1004E800000EAD6F12D7FFFF36C0D9FF37C0DAFF55
:1004F8001D0E3824E16E010E3920E26EDFCFE7FFD2
:10050800364A372A384A392AFFFF36C0D9FF37C05A
:10051800DAFFDF50D8A4E7D7000E396E000E386E28
:10052800FA0E40240001936FFF0E41200001946FE2
:100538001D0E0101006F010E0101016F93C002F150
:1005480094C003F125EC0BF000C151F001C152F049
:1005580051503424346E52503520356E53C003F157
:1005680054C004F155C005F151C029F052C02AF019
:10057800B8EC0FF029C000F12AC001F12BC002F13C
:10058800E7EC0BF000C10CF101C10DF102C10EF155
:100598003FEC0DF00CC147F00DC148F00EC149F019
:1005A8000FC14AF0000E0001AE6F000EAD6F000ED5
:1005B800416E000E406E00F013D1FFFF0001F951AB
:1005C8000001FA11D8A436D0AF0E0101006F000E59
:1005D8000101016FCE0E0101026F7F0E0101036F51
:1005E80032C004F133C005F155EC0AF0AF0E216EAC
:1005F800000E226E3BEC0EF0AF0E0101006F000EF4
:100608000101016FE60E0101026F7F0E0101036F08
:1006180034C004F135C005F155EC0AF0AF0E216E77
:10062800000E226E3BEC0EF0000E0001AE6F000EC5
:10063800AD6FD6D0FFFF0001975100019811D8A4E3
:10064800CFD053C003F154C004F155C005F134C0F4
:1006580029F035C02AF0B8EC0FF029C000F12AC003
:1006680001F12BC002F1E7EC0BF000C10CF101C164
:100678000DF102C10EF13FEC0DF00CC143F00DC1BC
:1006880044F00EC145F00FC146F0461E451E441EFB
:10069800436C000E44224522462243C021F044C048
:1006A80022F045C023F046C024F039EC08F0D7EC1E
:1006B8000FF0000E2E6E000E2F6E000E306E000E24
:1006C800316E000E436E000E446E000E456E000E35
:1006D800466E000E356E000E346E56C003F157C0DC
:1006E80004F158C005F132C029F033C02AF0B8EC43
:1006F8000FF029C000F12AC001F12BC002F1E7EC8C
:100708000BF000C10CF101C10DF102C10EF13FEC7B
:100718000DF00CC1F5F00DC1F6F00EC1F7F00FC1E8
:10072800F8F00001F81FF71FF61FF56D000EF6230D
:10073800F723F823F5C021F0F6C022F0F7C023F024
:10074800F8C024F047EC09F0D7EC0FF0000E2E6E3D
:10075800000E2F6E000E306E000E316E000E00017E
:10076800F56F000EF66F000EF76F000EF86F000EB3
:100778000001AE6F000EAD6F000E356E000E346EC8
:10078800AF0E0101006F000E0101016FCE0E0101D5
:10079800026F7F0E0101036F32C004F133C005F10F
:1007A80055EC0AF0AF0E216E000E226E3BEC0EF0F7
:1007B800AF0E0101006F000E0101016FE60E01018D
:1007C800026F7F0E0101036F34C004F135C005F1DB
:1007D80055EC0AF0AF0E216E000E226E3BEC0EF0C7
:1007E800FFFF000E3B6E000E3A6EFFFF3BBE06D0C9
:1007F8003B5010E1190E3A5CD8B00CD0FFFFC80E80
:100808003A24D96E000E3B20DA6E000EDF6E3A4AAB
:100818003B2AEBD7FFFF000E3B6E000E3A6EFFFF40
:100828003BBE06D03B5010E1190E3A5CD8B00CD054
:10083800FFFF1D0E3A24D96E010E3B20DA6E000E22
:10084800DF6E3A4A3B2AEBD7FFFF5B505C10D8A417
:100858002CD133BE03D133BE06D0335003E1150E7D
:10086800325CD8B0FBD0FFFF53C003F154C004F191
:1008780055C005F134C029F035C02AF0B8EC0FF0A6
:1008880029C000F12AC001F12BC002F1E7EC0BF0FE
:1008980000C10CF101C10DF102C10EF13FEC0DF0E8
:1008A8000CC143F00DC144F00EC145F00FC146F034
:1008B800461E451E441E436C000E44224522462215
:1008C80043C021F044C022F045C023F046C024F0C4
:1008D80039EC08F0D7EC0FF0000E2E6E000E2F6EDC
:1008E800000E306E000E316E000E436E000E446E28
:1008F800000E456E000E466E4EBE2DD04E504D1069
:100908004C1003E14B04D8A026D04BC021F04CC0BA
:1009180022F04DC023F04EC024F025EC07F0E4ECA3
:100928000FF0000E2E6E000E2F6E000E306E000EB1
:10093800316E000E4B6E000E4C6E000E4D6E000EAA
:100948004E6E000E0001AA6F000EA96F000E506EC9
:10095800000E4F6E24D0FFFF4EAE21D04BC021F0C9
:100968004CC022F04DC023F04EC024F047EC09F0F3
:10097800E4EC0FF0000E2E6E000E2F6E000E306E9F
:10098800000E316E000E4B6E000E4C6E000E4D6E5A
:10099800000E4E6E000E0001AA6F000EA96FFFFF39
:1009A80053C003F154C004F155C005F134C029F017
:1009B80035C02AF0B8EC0FF029C000F12AC001F1C7
:1009C8002BC002F1E7EC0BF000C10CF101C10DF1F5
:1009D80002C10EF13FEC0DF00CC143F00DC144F023
:1009E8000EC145F00FC146F043C021F044C022F0CB
:1009F80045C023F046C024F011EC06F0D7EC0FF008
:100A0800000E2E6E000E2F6E000E306E000E316E30
:100A1800000E436E000E446E000E456E000E466ECC
:100A2800AF0E0101006F000E0101016FCE0E010132
:100A3800026F7F0E0101036F32C004F133C005F16C
:100A480055EC0AF0AF0E216E000E226E3BEC0EF054
:100A5800000E0001AA6F000EA96F22D0FFFFF30E4F
:100A6800216E7E0E226E3BEC0EF04FC01BF150C083
:100A78001CF101011B1F1C1F1B4B1C2B32500101B9
:100A88001B25326E335001011C21336E000E506E4F
:100A9800000E4F6E600E216E7F0E226E3BEC0EF044
:100AA800FFFF000E5C6E010E5B6EFFFF59505A107F
:100AB800D8A46EEF00F035BE86D035BE06D03550CE
:100AC80003E11F0E345CD8B07ED0FFFF4ABE3ED093
:100AD80000F047C021F048C022F049C023F04AC0C6
:100AE80024F011EC06F0AF0E0101006F000E0101B9
:100AF800016FE60E0101026F7F0E0101036F34C022
:100B080004F135C005F155EC0AF0AF0E216E000E68
:100B1800226E3BEC0EF0D7EC0FF0000E2E6E000E9E
:100B28002F6E000E306E000E316E000E476E000EF6
:100B3800486E000E496E000E4A6E000E0001AA6F44
:100B4800000EA96F000E526E000E516EFFFF4AAEE6
:100B58005DD047C021F048C022F049C023F04AC008
:100B680024F039EC08F0AF0E0101006F000E01010E
:100B7800016FE60E0101026F7F0E0101036F34C0A1
:100B880004F135C005F155EC0AF0AF0E216E000EE8
:100B9800226E3BEC0EF0D7EC0FF0000E2E6E000E1E
:100BA8002F6E000E306E000E316E000E476E000E76
:100BB800486E000E496E000E4A6E000E0001AA6FC4
:100BC800000EA96F1ED0FFFFF30E216E7E0E226E5F
:100BD8003BEC0EF0340E216E7F0E226E3BEC0EF0D5
:100BE80051C01BF152C01CF101011B1F1C1F1B4BE4
:100BF8001C2B345001011B25346E355001011C217A
:100C0800356EFFFF000E526E000E516EFFFF000E94
:100C18005A6E010E596E6EEF00F0FFFF00D1FFFF14
:100C2800000E0001AA6F010EA96F3FBED6D03F503B
:100C380004E1080E3E5CD8A0D0D0000E3F6E000E36
:100C48003E6ECBD0FFFF010E8A6E000E3B6E000E8B
:100C58003A6E03D0FFFF3A4A3B2AFFFF3A505D5CE9
:100C68005E50800A256E3B50800A2558D8B0F2D7CE
:100C780000F0010E2E26000E2F223022312200F025
:100C880017D0FFFF030E8A6E000E3B6E000E3A6E01
:100C980003D0FFFF3A4A3B2AFFFF3A505D5C5E50A3
:100CA800800A256E3B50800A2558D8A08ED0F1D7EF
:100CB800FFFF3E4A3F2AB3D0FFFF020E8A6E000EA6
:100CC8003B6E000E3A6E03D0FFFF3A4A3B2AFFFF05
:100CD8003A505D5C5E50800A256E3B50800A25586C
:100CE800D8A073D0F1D7FFFF060E8A6E000E3B6EB8
:100CF800000E3A6E03D0FFFF3A4A3B2AFFFF3A50F4
:100D08005D5C5E50800A256E3B50800A2558D8A04D
:100D18005CD0F1D7FFFF040E8A6E000E3B6E000E0A
:100D28003A6E03D0FFFF3A4A3B2AFFFF3A505D5C18
:100D38005E50800A256E3B50800A2558D8A045D0C1
:100D4800F1D7FFFF0C0E8A6E000E3B6E000E3A6E56
:100D580003D0FFFF3A4A3B2AFFFF3A505D5C5E50E2
:100D6800800A256E3B50800A2558D8A02ED0F1D78E
:100D7800FFFF080E8A6E000E3B6E000E3A6E03D01F
:100D8800FFFF3A4A3B2AFFFF3A505D5C5E50800AFB
:100D9800256E3B50800A2558D8A017D0F1D7FFFF01
:100DA800090E8A6E000E3B6E000E3A6E03D0FFFFEE
:100DB8003A4A3B2AFFFF3A505D5C5E50800A256E36
:100DC8003B50800A2558D8B0F2D7FFFF010E2E26D7
:100DD800000E2F22302231226BD7FFFF3EC025F0B4
:100DE8003FC026F02650000AD8A419D02550000A82
:100DF800D8B428D7010AD8B444D7030AD8B45CD7E2
:100E0800010AD8B470D7070AD8B484D7010AD8B46D
:100E180098D7030AD8B4ACD7010AD8B4C0D7FFFF13
:100E28002E50215C2F502258305023582450800ACD
:100E3800256E3150800A2558D8A01200FFFFEFD642
:100E4800FFFFFFFF00D1FFFF000E0001AA6F010E98
:100E5800A96F3FBED6D03F5004E1080E3E5CD8A033
:100E6800D0D0000E3F6E000E3E6ECBD0FFFF010EBD
:100E7800896E000E3B6E000E3A6E03D0FFFF3A4AB1
:100E88003B2AFFFF3A505D5C5E50800A256E3B505E
:100E9800800A2558D8B0F2D700F0010E2E26000E91
:100EA8002F223022312200F017D0FFFF030E896E67
:100EB800000E3B6E000E3A6E03D0FFFF3A4A3B2A03
:100EC800FFFF3A505D5C5E50800A256E3B50800AF9
:100ED8002558D8A08ED0F1D7FFFF3E4A3F2AB3D07D
:100EE800FFFF020E896E000E3B6E000E3A6E03D0B5
:100EF800FFFF3A4A3B2AFFFF3A505D5C5E50800A8A
:100F0800256E3B50800A2558D8A073D0F1D7FFFF33
:100F1800060E896E000E3B6E000E3A6E03D0FFFF80
:100F28003A4A3B2AFFFF3A505D5C5E50800A256EC4
:100F38003B50800A2558D8A05CD0F1D7FFFF040E9B
:100F4800896E000E3B6E000E3A6E03D0FFFF3A4AE0
:100F58003B2AFFFF3A505D5C5E50800A256E3B508D
:100F6800800A2558D8A045D0F1D7FFFF0C0E896E0E
:100F7800000E3B6E000E3A6E03D0FFFF3A4A3B2A42
:100F8800FFFF3A505D5C5E50800A256E3B50800A38
:100F98002558D8A02ED0F1D7FFFF080E896E000E75
:100FA8003B6E000E3A6E03D0FFFF3A4A3B2AFFFF22
:100FB8003A505D5C5E50800A256E3B50800A255889
:100FC800D8A017D0F1D7FFFF090E896E000E3B6E2F
:100FD800000E3A6E03D0FFFF3A4A3B2AFFFF3A5011
:100FE8005D5C5E50800A256E3B50800A2558D8B05B
:100FF800F2D7FFFF010E2E26000E2F2230223122BB
:101008006BD7FFFF3EC025F03FC026F02650000AF0
:10101800D8A419D02550000AD8B428D7010AD8B4C2
:1010280044D7030AD8B45CD7010AD8B470D7070AE2
:10103800D8B484D7010AD8B498D7030AD8B4ACD79F
:10104800010AD8B4C0D7FFFF2E50215C2F50225878
:10105800305023582450800A256E3150800A255874
:10106800D8A01200FFFFEFD6FFFFFFFFFAD0FFFF67
:10107800000E0001AA6F010EA96F3FBED0D03F50ED
:1010880004E1080E3E5CD8A0CAD0000E3F6E000EE8
:101098003E6EC5D0FFFF090E8A6E000E3B6E000E35
:1010A8003A6E03D0FFFF3A4A3B2AFFFF3A505D5C95
:1010B8005E50800A256E3B50800A2558D8A0A5D0DE
:1010C800F1D7FFFF3E4A3F2ACCD0FFFF080E8A6EB9
:1010D800000E3B6E000E3A6E03D0FFFF3A4A3B2AE1
:1010E800FFFF3A505D5C5E50800A256E3B50800AD7
:1010F8002558D8A08AD0F1D7FFFF0C0E8A6E000EB3
:101108003B6E000E3A6E03D0FFFF3A4A3B2AFFFFC0
:101118003A505D5C5E50800A256E3B50800A255827
:10112800D8A073D0F1D7FFFF040E8A6E000E3B6E75
:10113800000E3A6E03D0FFFF3A4A3B2AFFFF3A50AF
:101148005D5C5E50800A256E3B50800A2558D8A009
:101158005CD0F1D7FFFF060E8A6E000E3B6E000EC4
:101168003A6E03D0FFFF3A4A3B2AFFFF3A505D5CD4
:101178005E50800A256E3B50800A2558D8A045D07D
:10118800F1D7FFFF020E8A6E000E3B6E000E3A6E1C
:1011980003D0FFFF3A4A3B2AFFFF3A505D5C5E509E
:1011A800800A256E3B50800A2558D8A02ED0F1D74A
:1011B800FFFF030E8A6E000E3B6E000E3A6E03D0E0
:1011C800FFFF3A4A3B2AFFFF3A505D5C5E50800AB7
:1011D800256E3B50800A2558D8A017D0F1D7FFFFBD
:1011E800010E8A6E000E3B6E000E3A6E03D0FFFFB2
:1011F8003A4A3B2AFFFF3A505D5C5E50800A256EF2
:101208003B50800A2558D8B0F2D7FFFFFF0E2E2694
:10121800FF0E2F22FF0E3022FF0E312252D7FFFF82
:101228003EC025F03FC026F02650000AD8A419D0A9
:101238002550000AD8B42ED7010AD8B446D7030AD5
:10124800D8B45AD7010AD8B46ED7070AD8B482D707
:10125800010AD8B496D7030AD8B4AAD7010AD8B4D1
:10126800BED7FFFF21502E5C22502F5823503058F4
:101278003150800A256E2450800A2558D8A01200C3
:10128800FFFFF5D6FFFFFFFFFAD0FFFF000E0001BA
:10129800AA6F010EA96F3FBED0D03F5004E1080EDF
:1012A8003E5CD8A0CAD0000E3F6E000E3E6EC5D080
:1012B800FFFF090E896E000E3B6E000E3A6E03D0DA
:1012C800FFFF3A4A3B2AFFFF3A505D5C5E50800AB6
:1012D800256E3B50800A2558D8A0A5D0F1D7FFFF2E
:1012E8003E4A3F2ACCD0FFFF080E896E000E3B6EA7
:1012F800000E3A6E03D0FFFF3A4A3B2AFFFF3A50EE
:101308005D5C5E50800A256E3B50800A2558D8A047
:101318008AD0F1D7FFFF0C0E896E000E3B6E000ECF
:101328003A6E03D0FFFF3A4A3B2AFFFF3A505D5C12
:101338005E50800A256E3B50800A2558D8A073D08D
:10134800F1D7FFFF040E896E000E3B6E000E3A6E59
:1013580003D0FFFF3A4A3B2AFFFF3A505D5C5E50DC
:10136800800A256E3B50800A2558D8A05CD0F1D75A
:10137800FFFF060E896E000E3B6E000E3A6E03D01C
:10138800FFFF3A4A3B2AFFFF3A505D5C5E50800AF5
:10139800256E3B50800A2558D8A045D0F1D7FFFFCD
:1013A800020E896E000E3B6E000E3A6E03D0FFFFF0
:1013B8003A4A3B2AFFFF3A505D5C5E50800A256E30
:1013C8003B50800A2558D8A02ED0F1D7FFFF030E36
:1013D800896E000E3B6E000E3A6E03D0FFFF3A4A4C
:1013E8003B2AFFFF3A505D5C5E50800A256E3B50F9
:1013F800800A2558D8A017D0F1D7FFFF010E896EB3
:10140800000E3B6E000E3A6E03D0FFFF3A4A3B2AAD
:10141800FFFF3A505D5C5E50800A256E3B50800AA3
:101428002558D8B0F2D7FFFFFF0E2E26FF0E2F2229
:10143800FF0E3022FF0E312252D7FFFF3EC025F0AB
:101448003FC026F02650000AD8A419D02550000A1B
:10145800D8B42ED7010AD8B446D7030AD8B45AD775
:10146800010AD8B46ED7070AD8B482D7010AD8B40B
:1014780096D7030AD8B4AAD7010AD8B4BED7FFFFB3
:1014880021502E5C22502F58235030583150800A5A
:10149800256E2450800A2558D8A01200FFFFF5D6E3
:1014A800FFFFFFFF040E0101066F010E0101076F28
:1014B800AFD0FFFF250E01010C19D8B40AD000C126
:1014C800D9FF01C1DAFF0CC1DFFF0101004B012B7D
:1014D8009FD0FFFF000E0101086F02C1F6FF03C194
:1014E800F7FF0101024B032B0800FFFFF5CF0CF1BA
:1014F80001010C51000AD8B49BD0640AD8B403D0B7
:101508000D0AD8A485D0FFFF06C1D9FF07C1DAFFAD
:10151800DECF0AF1DDCF0BF1020E01010627000E26
:10152800072301010BAF08D0030E010108130101C5
:101538000A6D0B1FD8B00B2BFFFF010E01010C6FBA
:10154800FFFF050E01010C19D8B418D001010C5188
:10155800020DE90EF324F66E7E0EF420F76E0900F4
:10156800FFFFF55001010A5D0900FFFFF550010179
:101578000B59D8A003D001010C2BE2D7FFFF08C1FB
:101588002DF0030E2D16D8B409D000C1D9FF01C122
:10159800DAFF2D0EDF6E0101004B012BFFFF0CC19E
:1015A80009F12FD0FFFF01010951020DE90EF324C3
:1015B800F66E7E0EF420F76E0900FFFFF5CF23F0DC
:1015C8000A00FFFFF5CF24F00AC121F00BC122F079
:1015D800B0EC0EF021C028F022C029F0000E2B6ECE
:1015E8000A0E2A6E90EC0FF02850300F01010C6F94
:1015F80000C1D9FF01C1DAFF0CC1DFFF0101004BB7
:10160800012BFFFF0101090701010929D8A4CAD745
:10161800FFFF02C1F6FF03C1F7FF0101024B032BD5
:101628000800FFFFF5CF0CF101010C51D8A441D7F8
:10163800FFFF00C1D9FF01C1DAFF000EDF6E120003
:10164800FFFFFFFF000E00018C6F000E8D6F000E74
:101658008E6F000E8F6F010E0001886F000E896F6C
:10166800000E8A6F000E8B6FFF0E0101046FFF0ED4
:101678000101056F02C106F103C107F1010104511F
:1016880001010627010105510101072306C184F064
:1016980007C185F00001000E85BFFF0E866F876FBA
:1016A80084D0FFFFD00E0101046FFF0E0101056F0A
:1016B8000001845101010025D96E00018551010105
:1016C8000121DA6EDF500101066F076B0101045139
:1016D80001010627010105510101072306C180F018
:1016E80007C181F00001826B836B80C021F081C04B
:1016F80022F082C023F083C024F088C025F089C07E
:1017080026F08AC027F08BC028F0E0EC0EF021C04C
:1017180080F022C081F023C082F024C083F0000151
:10172800805100018C2500018C6F0001815100015E
:101738008D2100018D6F0001825100018E21000171
:101748008E6F0001835100018F2100018F6FFF0E02
:10175800000184250001846FFF0E0001852100012E
:10176800856FFF0E000186210001866FFF0E0001C4
:1017780087210001876F88C021F089C022F08AC0C4
:1017880023F08BC024F00A0E256E000E266E000E84
:10179800276E000E286EE0EC0EF021C088F022C003
:1017A80089F023C08AF024C08BF0FFFF000187AFC7
:1017B80078D78CC000F18DC001F18EC002F18FC0C6
:1017C80003F11200FFFFFFFF02C1FDF00001FE6BF5
:1017D800FF6B010101350001FD3701E3FE810001C6
:1017E800FD510101066F01010651D8B413D005C19E
:1017F800FDF00001FE6BFF6B010104350001FD37B0
:1018080001E3FE810001FD5101010B6F01010B5144
:10181800D8A40BD0FFFF000E0101006F000E0101DC
:10182800016F000E0101026F79D0FFFF01010B511A
:101838007B0F0101062702C10BF1010105510101CE
:101848000B1B800E01010B170101018F0101048F91
:10185800FF0E01010317FF0E01010417000E01011D
:101868000517000E0101076F000E0101086F000E39
:101878000101096F070E01010A6FFFFF010100A1B5
:101888000CD0010103510101072701010451010195
:1018980008230101055101010923FFFF0101D89027
:1018A8000233013300330101D89003370437053779
:1018B80001010A2FE2D7090E01010A6FFFFF01019A
:1018C80000A10CD0010103510101072701010451B6
:1018D800010108230101055101010923FFFF01014D
:1018E800D8900233013300330101D890093308330B
:1018F800073301010A2FE2D707C121F008C122F0FE
:1019080009C123F006C124F00BC125F0D9EC0DF074
:1019180021C000F122C001F123C002F1FFFF120033
:10192800FFFFFFFFFACF02F0FBCF03F0E9CF04F08F
:10193800EACF05F0E1CF06F0E2CF07F0D9CF08F003
:10194800DACF09F0F3CF0AF0F4CF0BF0F6CF0CF0B2
:10195800F7CF0DF0F8CF0EF0F5CF0FF09EAA27D0F5
:10196800AECF42F00D0E4218D8B410D0C80E000108
:10197800A725D96E000E0001A821DA6E42C0DFFF4C
:101988000001A74BA82B404A412A0FD0FFFF0D0E9C
:101998004218D8A40AD0000E0001A86F000EA76F45
:1019A800000E0001AE6F010EAD6FFFFF9E9AFFFFA4
:1019B8009EA041D09E9000F0000E0001AC6F010E79
:1019C800AB6F0B0ECF6EDC0ECE6E0001AB050001C7
:1019D800AC11D8A430D00001A9050001AA11D8A4DF
:1019E8002AD000F000019D4B9E2B00019EBF1DD008
:1019F80000019E5105E1020E00019D5DD8A015D0A1
:101A080081AE02D0010E02D0FFFF000EFFFFFF0AD9
:101A1800016E013201328A5001187F0B01188A6E5B
:101A2800000E00019E6F000E9D6FFFFF000E00016B
:101A3800AC6F000EAB6FFFFF0FC0F5FF0EC0F8FFD5
:101A48000DC0F7FF0CC0F6FF0BC0F4FF0AC0F3FF90
:101A580009C0DAFF08C0D9FF07C0E2FF06C0E1FFEE
:101A680005C0EAFF04C0E9FF03C0FBFF02C0FAFF9C
:101A78005F921100FFFFFFFF0EC110F10101116B12
:101A8800126B01010D350101103701E311810101CC
:101A9800105101011A6F01011A51D8B451D0170E13
:101AA8000101106F0CC111F10DC112F10EC113F13A
:101AB800010110290101146F06D0FFFF0101D89020
:101AC800133312331133FFFF0101142FF6D701012D
:101AD80011510101156F01010D8FFF0E01010C1746
:101AE800FF0E01010D17000E01010E1701010C5127
:101AF8000101166F01010D510101176F01010E510E
:101B08000101186F0101196B8E0E01011A5F0101A5
:101B18001AAF11D001011A51800A8F0FD8A010D026
:101B2800FFFF0101D8901933183317331633010119
:101B38001A3FF6D71FD0FFFF170E01011A6514D000
:101B4800FFFF000E01010C6F000E0D6F000E0E6FEF
:101B5800000E0F6F27D0FFFF0101D89016371737F7
:101B68001837193701011A07FFFF01011A5101013E
:101B7800D8A4F1D7FFFF010115510101D8B409D04C
:101B88000101191F181F171F166D000E17231823A0
:101B98001923FFFF16C10CF117C10DF118C10EF181
:101BA80019C10FF1FFFF1200FFFFFFFF2450D8B447
:101BB80005D0215022102310D8A40ED0FFFF000E0C
:101BC800216E000E226E000E236E4ED0FFFF242AD7
:101BD800D890233222322132FFFF000E2114266EC4
:101BE800000E2214276EFE0E2314286E265027108E
:101BF8002810D8B40DD0EAD7FFFF242A010E2126D9
:101C0800000E2222000E2322D890233222322132C3
:101C1800FFFF000E2114266E000E2214276EFF0E01
:101C28002314286E265027102810D8B407D0E4D7DC
:101C3800FFFF2406D890213622362336FFFF22BE26
:101C480003D0020E2460F4D7FFFF24A0229ED89070
:101C58002432245023122550D8A4238E21C021F0E9
:101C680022C022F023C023F0FFFF1200FFFFFFFF76
:101C780018D0FFFF21C0F6FF22C0F7FFF86A050E53
:101C8800F76404D00800FFFFF55005D0F6CFE9FF50
:101C9800F7CFEAFFEF50AD6EFFFFACA2FDD7214AA8
:101CA800222AFFFF21C0F6FF22C0F7FFF86A050EBF
:101CB800F76404D00800FFFFF55005D0F6CFE9FF20
:101CC800F7CFEAFFEF500009D8A4D3D70A0EAD6EBC
:101CD800FFFFACA2FDD70D0EAD6EFFFFACB2120038
:101CE800FFFFFBD7FFFFD80EF66E1F0EF76E000E34
:101CF800F86E00EEF9F010EE04F00900F5CFEEFFF3
:101D0800E550E150FAE1BC0EF66E1F0EF76E000EBC
:101D1800F86E00EE53F010EE0CF00900F5CFEEFF70
:101D2800E550E150FAE101EE1DF0190EEE6AE80601
:101D3800FDE100EE80F0790EEE6AE806FDE100EEC6
:101D48002EF0250EEE6AE806FDE15F905F92000E28
:101D5800F86E000157EF00F0FFFF000E276E000E2F
:101D6800266E23502410D8B420D0010E256E05D03D
:101D7800FFFFD89023362436252AFFFF24AEF8D754
:101D8800FFFFD890263627362350215C245022584E
:101D9800D8A005D02350215E2450225A2680FFFF68
:101DA800D89024322332252EEBD7FFFF26C021F00E
:101DB80027C022F01200FFFFFFFF000E296E000E61
:101DC8002A6E000E2B6E000E2C6EFFFF21A008D08D
:101DD8002550292626502A2227502B2228502C22EB
:101DE800FFFFD8902536263627362836D890243255
:101DF8002332223221322150221023102410D8A459
:101E0800E4D729C021F02AC022F02BC023F02CC02F
:101E180024F01200FFFFFFFF00019B4B9C2B215079
:101E280000019B5D00019C51800A236E2250800AAC
:101E38002358D8A015D081AE02D0010E02D0FFFFE2
:101E4800000EFFFFFF0A236E233223328A50231825
:101E58007F0B23188A6E000E00019C6F000E9B6F8B
:101E6800FFFF000E0001AC6F000EAB6F1200FFFF0A
:101E7800FFFF05D0FFFF214A222A234A242AFFFF19
:101E880021C0D9FF22C0DAFFDF50256E23C0F6FF3C
:101E980024C0F7FF0800FFFFF55000082524266E30
:101EA8002650D8A407D021C0D9FF22C0DAFFDF50BE
:101EB800D8A4E0D7FFFF2650216E226A21BE220651
:101EC8001200FFFFFFFF000E806E000E816E000EF5
:101ED800826E9390939293949396000E926E939E33
:101EE800CD8E300ECD12CD92CD84CD809D809F8039
:101EF8000B0ECF6EDC0ECE6EF28EF28C948E949C0E
:101F08000A0EAF6EAB8EAC98AC84AC8AAB889D8A57
:101F18009F8AA0881200FFFFFFFF2A502B10D8B419
:101F28001CD0010E2C6E05D0FFFFD8902A362B3618
:101F38002C2AFFFF2BAEF8D7FFFF2A50285C2B5026
:101F48002958D8A004D02A50285E2B50295AFFFFC0
:101F5800D8902B322A322C2EEFD7FFFF28C028F03A
:101F680029C029F01200FFFFFFFF000E2C6E2AAED9
:101F780006D0296C2A1ED8B02A2A010E2C6EFFFF23
:101F880029C021F02AC022F0236A8E0E246E2CC0AC
:101F980025F0D9EC0DF021C029F022C02AF023C089
:101FA8002BF01200FFFFFFFF8A908A928A948A968C
:101FB8001200FFFF032546FB334601000100F40130
:101FC800FFFF000E896E1200FFFFFFFF1200FFFFE8
:061FD8000100EC0FFFFF09
:107EE8000001000A006400E8031027656C206D6F2C
:107EF80076696D69656E746F20736F6C69636974F8
:107F080061646F20736520656E6375656E74726158
:107F18002066756572612064656C2072616E676F9A
:107F28002064652074726162616A6F0020456C206C
:107F380072616E676F2064652074726162616A6F36
:107F480020656E20656C20656A652079203A205B83
:107F5800302C33305D6D6D0020456C2072616E678A
:107F68006F2064652074726162616A6F20656E209B
:107F7800656C20656A652078203A205B302C3230A9
:107F88005D6D6D00436F6D616E646F206E6F205282
:107F980065636F6E6F6369646F004269656E7665CD
:107FA8006E69646F2C004445564F4C56455200503C
:107FB8004F534943494F4E004D4F56455259004D76
:107FC8004F5645525800706F736963696F6E20652C
:107FD8006E20656A652078203A2025642000706F3D
:107FE800736963696F6E20656E20656A6520792004
:077FF8003A2025642000007F
:020000040020DA
:08000000FFFFFFFFFFFFFFFF00
:020000040030CA
:0E000000FF220D0EFF0080FF0FC00FE00F402B
:00000001FF
